:100000000C9410340C9450340C9450340C945034A0
:100010000C9450340C9450340C9450340C94503450
:100020000C9450340C9450340C9450340C94503440
:100030000C9450340D9434950C9450340C945034EA
:100040000C9450340C9437D30C9450340C9450349A
:100050000C9450340C9450340C94ADD10D94EA941B
:100060000C9450340C9426950C941C950C9450349C
:100070000C9450340C9450340C9450340C945034F0
:100080000C9459570C9450340C9450340C945034B4
:100090000C9450340C9450340C9450340C945034D0
:1000A0000C9450340C9450340C942B570C945034C2
:1000B0000C9450340C9450340C9450340C945034B0
:1000C0000C9450340C9450340C9450340C945034A0
:1000D0000C9450340C9450340C9450340C94503490
:1000E0000C945034084AD73B3BCE016E84BCBFFD14
:1000F000C12F3D6C74319ABD56833DDA3D00C77FF8
:1001000011BED9E4BB4C3E916BAAAABE0000008090
:100110003F05A84CCDB2D44EB93836A9020C50B91F
:10012000918688083CA6AAAA2ABE000000803F0744
:10013000634236B79BD8A71A39685618AEBAAB5582
:100140008C1D3CB7CC5763BD6DEDFD753EF6177247
:1001500031BF000000803F08000000BE9224491219
:100160003EABAAAA2ABECDCCCC4C3E00000080BE3D
:10017000ABAAAAAA3E00000000BF000000803F001A
:1001800000000000084178D3BB4387D1133D190E0E
:100190003CC3BD4282AD2B3E68EC8276BED98FE176
:1001A000A93E4C80EFFFBE01C4FF7F3F000000006E
:1001B00000000D94A48E0D941F2D0D9454280D94C1
:1001C0005D230D94F84C0D941B420D94EA2E0D9472
:1001D0005B280D940D960D94858E0D944D470D94CE
:1001E000B88E0D9441700D94ED8F0D94422F0D94A7
:1001F00071300D940B100D94252D0D947D8E0D9462
:1002000055240D9402500D940A270D94176D0D94EA
:10021000590C0D9414270D9402300D94FA230D946B
:10022000E9250D94F0490D9477300D94B0A50D9407
:100230008E2F0D9479690D949E010D94A62F0D9427
:10024000E2540D9463280D9435230D945D4B0D9469
:1002500033700D94F82E0D94BC4C0D94AE8E0D940D
:10026000CA3E0D94B5620D94A62E0D942A390D94B4
:1002700059280D94A9350D94AE290D94FC290D949F
:10028000FF490D94FC250D94078F0D94748F0D94E8
:10029000AA8E0D94CEA50D94D4120D94CB130D946B
:1002A000B0300D94336E0D94D7490D9474300D9485
:1002B000DC490D94E4300D9480260D94FA4F0D9492
:1002C000F03B0D94222D0D947D280D94678F0D9495
:1002D000C76C0D9490610D949B2D0D94AF340D94CB
:1002E000386E0D94BE2F0D9457280D94935F0D9486
:1002F000004D0D94C8200D94282D0D941C240D94B0
:10030000892D0D94AC8F0D9480280D94C8020D9406
:100310001E3D0D941D210D9486300D94DE360D94F6
:10032000B3320D94692F0D9400550D94C08F0D9428
:10033000C8490D94E0250D948C8E0D943C550D9478
:1003400099230D94DD230D9472540D94842D0D94F6
:10035000D4270D94D98F0D94E1490D94C9230D94A0
:10036000928E0D94FA490D94912D0D9492330D9423
:10037000BD200D941E550D94BA240D9490540D94E7
:100380008C300D949A8F0D94BC8E0D94102D0D947D
:10039000F58E0D9482630D94A42E0D94562E0D941B
:1003A0008B300D94B1240D947A300D94E22A0D9483
:1003B000CD490D946B8E0D94928F0D94292F0D9431
:1003C00001900D947A280D94A28F0D94818E0D9436
:1003D000AD230D94AEA50D94BD2E0D946F8F0D948D
:1003E00006700D94BA370D94192D0D9447360D945F
:1003F000C7290D942B2D0D94668E0D94D62F0D9438
:1004000085260D9451270D9400110D940F210D9404
:1004100083300D946C250D94BB230D940F270D9400
:10042000695A0D9483230D9438000D945F280D9420
:10043000835D0D94084A0D9419270D94AC680D94B2
:1004400068550D94B28E0D9480300D94462A0D940B
:10045000CB5C0D949A240D94F1230D9483240D9478
:100460002F430D9466230D94B84D0D94888F0D94F1
:100470001A300D9465280D9492300D945D280D94DA
:10048000F78F0D9490710D9461280D94898E0D94C1
:1004900032300D946A3A0D9410280D9455660D94DF
:1004A000E38F0D9470000D94B3240D94132D0D94CF
:1004B000636B0D94622F0D94D2490D947D2D0D9494
:1004C000EB490D94A0270D9478590D94226D0D944D
:1004D000CC2E0D94B68F0D94F5490D94FA310D94F0
:1004E0007A230D9408240D9440700D949A200D9455
:1004F000A64C0D9419280D947E8F0D94FE4F0D94EB
:100500009E0E0D94B64B0D946C240D941C2D0D94E1
:10051000162D0D948F300D9467300D947D300D9411
:1005200049230D94E6490D949C8E0D94A08E0D9454
:10053000968E0D94CF8F4E414E494E495459494E97
:1005400046CDCCCC3D0AD7233C17B7D13877CC2B3E
:10055000329595E6241FB14F0A000020410000C8E3
:100560004200401C4620BCBE4CCA1B0E5AAEC59D64
:100570007400407A10F35A00A0724E18090010A5BA
:10058000D4E80000E87648170000E40B54020000AD
:10059000CA9A3B000000E1F5050000809698000033
:1005A0000040420F000000A086010000001027005C
:1005B000000000E803000000006400000000000AE2
:1005C00000000000000100000000002C76D888DC4C
:1005D000674F0823DFC1DFAE59E1B1B796E5E3E429
:1005E00053C63AE651997696E8E6C28426EB898CA2
:1005F0009B62ED407C6FFCEFBC9C9F40F2BAA56F04
:10060000A5F490055A2AF75C936B6CF9676DC11BD2
:10061000FCE0E40D47FEF520E6B500D0ED902E039A
:1006200000943577050080841E080000204E0A00E3
:100630000000C80C333333330F986E12831141EF2F
:100640008D2114893BE65516CFFEE6DB18D1844B8D
:10065000381BF77C1D901DA4BBE424203284725EFD
:10066000228100C9F124ECA1E53D276D0625272351
:10067000181F211D1C19171B1E2E2C0C0A410908BE
:10068000070440000170012C0190012701B00122F4
:1006900001C0011D01F00118011002130130020E0A
:1006A000016002090190020401C002FF000003FA88
:1006B000004003F5008003F000D003EB002004E6C7
:1006C000007004E100E004DC004005D700C005D262
:1006D000004006CD00D006C8008007C3003008BE29
:1006E00000F008B900C009B400B00AAF00B00BAA0E
:1006F00000D00CA500000EA000500F9B00C010966B
:10070000005012910000148C00C0158700B01782B1
:1007100000B0197D00D01B7800001E730040206ED1
:100720000090226900F024640040275F0090295A5D
:1007300000E02B5500102E500020304B00103246A8
:1007400000E033410090353C0010373700703832FC
:1007500000A0392D00B03A2800A03B2300603C1EC9
:1007600000103D1900903D1400103E0F00703E0A2D
:1007700000C03E0500003F0000403FFBFF803FF609
:10078000FFC03FF1FF24F404D9201BC40C5C0E9879
:1007900004C4095F0265077101F405F900FB04B3A5
:1007A0000048048700C1036900580355000303454E
:1007B00000BE023A008402310053022A00290225B9
:1007C0000004022000E4011C00C8011900AF011759
:1007D00000980114008401130071011000610110E0
:1007E0000051010E0043010D0036010B002B010BDF
:1007F0000020010B00150109000C0109000301088C
:1008000000FB000800F3000800EB000700E400060E
:1008100000DE000600D8000600D2000600CC00056D
:1008200000C7000500C2000500BD000400B90004B7
:1008300000B5000400B1000400AD000400A90004EC
:1008400000A5000300A20003009F0004009B00031A
:10085000009800030095000200930003009000033D
:10086000008D0002008B0003008800020086000259
:100870000084000300810002007F0002007D00026E
:10088000007B000200790002007700010076000280
:10089000007400020072000100710002006F00028B
:1008A000006D0001006C0002006A00010069000296
:1008B000006700010066000100650001006400029D
:1008C000006200010061000100600001005F0002A1
:1008D000005D0001005C0001005B0001005A0001A6
:1008E00000590001005800010057000100560001A6
:1008F00000550001005400010053000000530001A6
:10090000005200010051000100500001004F0001A1
:10091000004E0000004E0001004D0001004C00019F
:10092000004B0000004B0001004A0001004900019B
:100930000048000000480001004700010046000098
:100940000046000100450000004500010044000190
:10095000004300000043000100420000004200018B
:10096000004100000041000100400001003F000084
:10097000003F0001003E0000003E0001003D00007D
:10098000003D0001003C0000003C0000003C000174
:10099000003B0000003B0001003A0000003A00016B
:1009A0000039000000390001003800000038000064
:1009B0000038000100370000003700010036000059
:1009C0000036000000360001003500000035000050
:1009D0000035000100340000003400000034000144
:1009E000003300000033000000330001003200003B
:1009F0000032000000320001003100000031000030
:100A00000031000100300000003000000030000123
:100A1000002F0000002F0000002F0000002F000119
:100A2000002E0000002E0000002E0001002D00000E
:100A3000002D0000002D0000002D0001002C000002
:100A4000002C0000002C0000002C0001002B0000F6
:100A5000002B0000002B0000002B0001002A0000EA
:100A6000002A0000002A0000002A000100290000DE
:100A700000290000002900000029000000290001D1
:100A800000280000002800000028000000280000C6
:100A900000280001002700000027000000270000B8
:100AA00000270000002700010026000000260000AB
:100AB000002600000026000000260001002500009E
:100AC0000025000000250000002500000025000092
:100AD0000025000100240000002400000024000084
:100AE0000024000000240001002300000023000077
:100AF000002300000023000000230000002300006A
:100B0000002300010022000000220000002200005B
:100B1000002200000022000000220001002100004D
:100B20000021000000210000002100000021000041
:100B30000021000000210001002000000020000032
:100B40000020000000200000002000000020000025
:100B50000020000000200001001F0000001F000016
:100B6000001F0000001F0000001F0000001F000009
:100B7000001F0001001E0000001E0000001E0000FB
:100B8000001E00000024F4D43050C38E20C2A240C6
:100B900017828B7011127A910D816CD90AA861E1CC
:100BA00008C7586607615143061E4B5D05C145A73E
:100BB000041A411104093D9803713931034036DBB1
:100BC0000265339102D4305402802E1D02632CEE54
:100BD00001752AC501B028A001102781018F256465
:100BE000012B244B01E0223401AC211F018D200D8B
:100BF00001801FFC00841EED00971DDF00B81CD291
:100C000000E61BC600201BBC00641AB200B219A883
:100C1000000A19A0006A189900D117910040178B9B
:100C200000B516840031167E00B31579003A1573AD
:100C300000C7146F0058146A00EE1366008813632F
:100C40000025135E00C7125B006C1257001512548A
:100C500000C111510070114F0021114B00D61049F5
:100C6000008D1047004610440002104200C00F40A3
:100C700000800F3E00420F3C00060F3B00CB0E38B9
:100C800000930E37005C0E3500270E3400F30D3252
:100C900000C10D3100900D3000600D2E00320D2D81
:100CA00000050D2C00D90C2B00AE0C2900850C2959
:100CB000005C0C2700350C27000E0C2600E80B24E6
:100CC00000C40B2400A00B23007D0B23005A0B2132
:100CD00000390B2100180B2000F80A1F00D90A1E4A
:100CE00000BB0A1E009D0A1D00800A1D00630A1C2D
:100CF00000470A1B002C0A1B00110A1A00F7091AE8
:100D000000DD091900C4091900AB0919009209177F
:100D1000007B091800630917004C091600360916F4
:100D200000200916000A091500F5081500E008144E
:100D300000CC081400B8081400A40814009008138C
:100D4000007D0812006B08130058081200460812B4
:100D500000340811002308110012081100010811C5
:100D600000F0071000E0071000D0071000C00710C7
:100D700000B0070F00A107100091070E0083070FB6
:100D80000074070F0065070E0057070E0049070E95
:100D9000003B070D002E070E0020070D0013070D66
:100DA0000006070D00F9060C00ED060D00E0060C2C
:100DB00000D4060C00C8060C00BC060C00B0060CE3
:100DC00000A4060B0099060C008D060B0082060B92
:100DD0000077060B006C060B0061060A0057060B35
:100DE000004C060A0042060A0038060A002E060ACF
:100DF0000024060A001A060A001006090007060A5F
:100E000000FD050900F4050900EB050900E20509EC
:100E100000D9050900D0050900C7050900BE05096C
:100E200000B5050800AD050800A50509009C0508EA
:100E300000940508008C050800840508007C05085E
:100E400000740508006C050700650508005D0507CE
:100E500000560508004E0507004705070040050835
:100E60000038050700310507002A0507002305079C
:100E7000001C050600160507000F050700080506FB
:100E80000002050700FB040600F5040700EE040657
:100E900000E8040600E2040700DB040600D50406AF
:100EA00000CF040600C9040600C3040600BD040602
:100EB00000B7040600B1040500AC040600A6040651
:100EC00000A00405009B040600950405009004069C
:100ED000008A04050085040500800406007A0405E4
:100EE0000075040500700405006B04050066040528
:100EF00000610405005C0405005704050052040568
:100F0000004D04050048040500430405003E0404A8
:100F1000003A04050035040500300404002C0405E3
:100F20000027040400230405001E0404001A04041E
:100F30000016040500110404000D04040009040552
:100F4000000404040000040400FC030400F803048B
:100F500000F4030400F0030400EC030400E80304BD
:100F600000E4030400E0030400DC030400D80304ED
:100F700000D4030400D0030400CC030400C803031E
:100F800000C5030300726F746174696F6E206D6138
:100F9000747269783A0A0024F404D9201BC40C5CEA
:100FA0000E9804C4095F0265077101F405F900FB9E
:100FB00004B30048048700C10369005803550003C7
:100FC000034500BE023A008402310053022A002980
:100FD00002250004022000E4011C00C8011900AF32
:100FE00001170098011400840113007101100061C1
:100FF00001100051010E0043010D0036010B002BC2
:10100000010B0020010B00150109000C0109000370
:10101000010800FB000800F3000800EB000700E4F3
:10102000000600DE000600D8000600D2000600CC54
:10103000000500C7000500C2000500BD000400B99E
:10104000000400B5000400B1000400AD000400A9D4
:10105000000400A5000300A20003009F0004009B01
:101060000003009800030095000200930003009025
:101070000003008D0002008B000300880002008640
:1010800000020084000300810002007F0002007D56
:101090000002007B00020079000200770001007668
:1010A0000002007400020072000100710002006F73
:1010B0000002006D0001006C0002006A000100697E
:1010C0000002006700010066000100650001006485
:1010D0000002006200010061000100600001005F89
:1010E0000002005D0001005C0001005B0001005A8D
:1010F000000100590001005800010057000100568E
:10110000000100550001005400010053000000538D
:101110000001005200010051000100500001004F89
:101120000001004E0000004E0001004D0001004C87
:101130000001004B0000004B0001004A0001004983
:10114000000100480000004800010047000100467F
:101150000000004600010045000000450001004479
:101160000001004300000043000100420000004273
:101170000001004100000041000100400001003F6B
:101180000000003F0001003E0000003E0001003D65
:101190000000003D0001003C0000003C0000003C5D
:1011A0000001003B0000003B0001003A0000003A53
:1011B000000100390000003900010038000000384B
:1011C0000000003800010037000000370001003641
:1011D0000000003600000036000100350000003538
:1011E000000000350001003400000034000000342D
:1011F0000001003300000033000000330001003222
:101200000000003200000032000100310000003117
:10121000000000310001003000000030000000300C
:101220000001002F0000002F0000002F0000002F01
:101230000001002E0000002E0000002E0001002DF5
:101240000000002D0000002D0000002D0001002CEA
:101250000000002C0000002C0000002C0001002BDE
:101260000000002B0000002B0000002B0001002AD2
:101270000000002A0000002A0000002A00010029C6
:1012800000000029000000290000002900000029BA
:1012900000010028000000280000002800000028AD
:1012A00000000028000100270000002700000027A0
:1012B0000000002700000027000100260000002693
:1012C0000000002600000026000000260001002586
:1012D000000000250000002500000025000000257A
:1012E000000000250001002400000024000000246C
:1012F000000000240000002400010023000000235F
:101300000000002300000023000000230000002351
:101310000000002300010022000000220000002243
:101320000000002200000022000000220001002135
:101330000000002100000021000000210000002129
:10134000000000210000002100010020000000201A
:10135000000000200000002000000020000000200D
:1013600000000020000000200001001F0000001FFE
:101370000000001F0000001F0000001F0000001FF1
:101380000000001F0001001E0000001E0000001EE3
:101390000000001E00000024F4D43050C38E20C290
:1013A000A24017828B7011127A910D816CD90AA814
:1013B00061E108C7586607615143061E4B5D05C1D0
:1013C00045A7041A411104093D98037139310340BE
:1013D00036DB0265339102D4305402802E1D026345
:1013E0002CEE01752AC501B028A001102781018FBC
:1013F0002564012B244B01E0223401AC211F018D17
:10140000200D01801FFC00841EED00971DDF00B839
:101410001CD200E61BC600201BBC00641AB200B23E
:1014200019A8000A19A0006A189900D11791004064
:10143000178B00B516840031167E00B31579003A7B
:10144000157300C7146F0058146A00EE1366008805
:1014500013630025135E00C7125B006C1257001562
:10146000125400C111510070114F0021114B00D6D0
:101470001049008D1047004610440002104200C081
:101480000F4000800F3E00420F3C00060F3B00CB98
:101490000E3800930E37005C0E3500270E3400F333
:1014A0000D3200C10D3100900D3000600D2E003264
:1014B0000D2D00050D2C00D90C2B00AE0C2900853C
:1014C0000C29005C0C2700350C27000E0C2600E8C8
:1014D0000B2400C40B2400A00B23007D0B23005A17
:1014E0000B2100390B2100180B2000F80A1F00D92E
:1014F0000A1E00BB0A1E009D0A1D00800A1D006313
:101500000A1C00470A1B002C0A1B00110A1A00F7CC
:10151000091A00DD091900C4091900AB0919009264
:101520000917007B091800630917004C09160036DB
:10153000091600200916000A091500F5081500E033
:10154000081400CC081400B8081400A40814009073
:101550000813007D0812006B08130058081200469B
:1015600008120034081100230811001208110001AC
:10157000081100F0071000E0071000D0071000C0AD
:10158000071000B0070F00A107100091070E00839D
:10159000070F0074070F0065070E0057070E00497C
:1015A000070E003B070D002E070E0020070D00134D
:1015B000070D0006070D00F9060C00ED060D00E012
:1015C000060C00D4060C00C8060C00BC060C00B0CB
:1015D000060C00A4060B0099060C008D060B008279
:1015E000060B0077060B006C060B0061060A00571D
:1015F000060B004C060A0042060A0038060A002EB6
:10160000060A0024060A001A060A00100609000746
:10161000060A00FD050900F4050900EB050900E2D2
:10162000050900D9050900D0050900C7050900BE54
:10163000050900B5050800AD050800A50509009CD1
:10164000050800940508008C050800840508007C46
:10165000050800740508006C050700650508005DB5
:10166000050700560508004E05070047050700401E
:1016700005080038050700310507002A0507002383
:101680000507001C050600160507000F05070008E2
:1016900005060002050700FB040600F5040700EE3E
:1016A000040600E8040600E2040700DB040600D597
:1016B000040600CF040600C9040600C3040600BDEA
:1016C000040600B7040600B1040500AC040600A639
:1016D000040600A00405009B040600950405009084
:1016E0000406008A04050085040500800406007ACB
:1016F00004050075040500700405006B0405006610
:10170000040500610405005C04050057040500524F
:101710000405004D04050048040500430405003E8F
:101720000404003A04050035040500300404002CCC
:1017300004050027040400230405001E0404001A05
:1017400004040016040500110404000D040400093B
:101750000405000404040000040400FC030400F871
:10176000030400F4030400F0030400EC030400E8A5
:10177000030400E4030400E0030400DC030400D8D5
:10178000030400D4030400D0030400CC030400C805
:10179000030300C503030024F404D9201BC40C5C1C
:1017A0000E9804C4095F0265077101F405F900FB96
:1017B00004B30048048700C10369005803550003BF
:1017C000034500BE023A008402310053022A002978
:1017D00002250004022000E4011C00C8011900AF2A
:1017E00001170098011400840113007101100061B9
:1017F00001100051010E0043010D0036010B002BBA
:10180000010B0020010B00150109000C0109000368
:10181000010800FB000800F3000800EB000700E4EB
:10182000000600DE000600D8000600D2000600CC4C
:10183000000500C7000500C2000500BD000400B996
:10184000000400B5000400B1000400AD000400A9CC
:10185000000400A5000300A20003009F0004009BF9
:10186000000300980003009500020093000300901D
:101870000003008D0002008B000300880002008638
:1018800000020084000300810002007F0002007D4E
:101890000002007B00020079000200770001007660
:1018A0000002007400020072000100710002006F6B
:1018B0000002006D0001006C0002006A0001006976
:1018C000000200670001006600010065000100647D
:1018D0000002006200010061000100600001005F81
:1018E0000002005D0001005C0001005B0001005A85
:1018F0000001005900010058000100570001005686
:101900000001005500010054000100530000005385
:101910000001005200010051000100500001004F81
:101920000001004E0000004E0001004D0001004C7F
:101930000001004B0000004B0001004A000100497B
:101940000001004800000048000100470001004677
:101950000000004600010045000000450001004471
:10196000000100430000004300010042000000426B
:101970000001004100000041000100400001003F63
:101980000000003F0001003E0000003E0001003D5D
:101990000000003D0001003C0000003C0000003C55
:1019A0000001003B0000003B0001003A0000003A4B
:1019B0000001003900000039000100380000003843
:1019C0000000003800010037000000370001003639
:1019D0000000003600000036000100350000003530
:1019E0000000003500010034000000340000003425
:1019F000000100330000003300000033000100321A
:101A0000000000320000003200010031000000310F
:101A10000000003100010030000000300000003004
:101A20000001002F0000002F0000002F0000002FF9
:101A30000001002E0000002E0000002E0001002DED
:101A40000000002D0000002D0000002D0001002CE2
:101A50000000002C0000002C0000002C0001002BD6
:101A60000000002B0000002B0000002B0001002ACA
:101A70000000002A0000002A0000002A00010029BE
:101A800000000029000000290000002900000029B2
:101A900000010028000000280000002800000028A5
:101AA0000000002800010027000000270000002798
:101AB000000000270000002700010026000000268B
:101AC000000000260000002600000026000100257E
:101AD0000000002500000025000000250000002572
:101AE0000000002500010024000000240000002464
:101AF0000000002400000024000100230000002357
:101B00000000002300000023000000230000002349
:101B1000000000230001002200000022000000223B
:101B2000000000220000002200000022000100212D
:101B30000000002100000021000000210000002121
:101B40000000002100000021000100200000002012
:101B50000000002000000020000000200000002005
:101B600000000020000000200001001F0000001FF6
:101B70000000001F0000001F0000001F0000001FE9
:101B80000000001F0001001E0000001E0000001EDB
:101B90000000001E00000024F4D43050C38E20C288
:101BA000A24017828B7011127A910D816CD90AA80C
:101BB00061E108C7586607615143061E4B5D05C1C8
:101BC00045A7041A411104093D98037139310340B6
:101BD00036DB0265339102D4305402802E1D02633D
:101BE0002CEE01752AC501B028A001102781018FB4
:101BF0002564012B244B01E0223401AC211F018D0F
:101C0000200D01801FFC00841EED00971DDF00B831
:101C10001CD200E61BC600201BBC00641AB200B236
:101C200019A8000A19A0006A189900D1179100405C
:101C3000178B00B516840031167E00B31579003A73
:101C4000157300C7146F0058146A00EE13660088FD
:101C500013630025135E00C7125B006C125700155A
:101C6000125400C111510070114F0021114B00D6C8
:101C70001049008D1047004610440002104200C079
:101C80000F4000800F3E00420F3C00060F3B00CB90
:101C90000E3800930E37005C0E3500270E3400F32B
:101CA0000D3200C10D3100900D3000600D2E00325C
:101CB0000D2D00050D2C00D90C2B00AE0C29008534
:101CC0000C29005C0C2700350C27000E0C2600E8C0
:101CD0000B2400C40B2400A00B23007D0B23005A0F
:101CE0000B2100390B2100180B2000F80A1F00D926
:101CF0000A1E00BB0A1E009D0A1D00800A1D00630B
:101D00000A1C00470A1B002C0A1B00110A1A00F7C4
:101D1000091A00DD091900C4091900AB091900925C
:101D20000917007B091800630917004C09160036D3
:101D3000091600200916000A091500F5081500E02B
:101D4000081400CC081400B8081400A4081400906B
:101D50000813007D0812006B081300580812004693
:101D600008120034081100230811001208110001A4
:101D7000081100F0071000E0071000D0071000C0A5
:101D8000071000B0070F00A107100091070E008395
:101D9000070F0074070F0065070E0057070E004974
:101DA000070E003B070D002E070E0020070D001345
:101DB000070D0006070D00F9060C00ED060D00E00A
:101DC000060C00D4060C00C8060C00BC060C00B0C3
:101DD000060C00A4060B0099060C008D060B008271
:101DE000060B0077060B006C060B0061060A005715
:101DF000060B004C060A0042060A0038060A002EAE
:101E0000060A0024060A001A060A0010060900073E
:101E1000060A00FD050900F4050900EB050900E2CA
:101E2000050900D9050900D0050900C7050900BE4C
:101E3000050900B5050800AD050800A50509009CC9
:101E4000050800940508008C050800840508007C3E
:101E5000050800740508006C050700650508005DAD
:101E6000050700560508004E050700470507004016
:101E700005080038050700310507002A050700237B
:101E80000507001C050600160507000F05070008DA
:101E900005060002050700FB040600F5040700EE36
:101EA000040600E8040600E2040700DB040600D58F
:101EB000040600CF040600C9040600C3040600BDE2
:101EC000040600B7040600B1040500AC040600A631
:101ED000040600A00405009B04060095040500907C
:101EE0000406008A04050085040500800406007AC3
:101EF00004050075040500700405006B0405006608
:101F0000040500610405005C040500570405005247
:101F10000405004D04050048040500430405003E87
:101F20000404003A04050035040500300404002CC4
:101F300004050027040400230405001E0404001AFD
:101F400004040016040500110404000D0404000933
:101F50000405000404040000040400FC030400F869
:101F6000030400F4030400F0030400EC030400E89D
:101F7000030400E4030400E0030400DC030400D8CD
:101F8000030400D4030400D0030400CC030400C8FD
:101F9000030300C503030070012C0190012701B069
:101FA000012201C0011D01F00118011002130130CE
:101FB000020E016002090190020401C002FF00004C
:101FC00003FA004003F5008003F000D003EB00208B
:101FD00004E6007004E100E004DC004005D700C026
:101FE00005D2004006CD00D006C8008007C30030EF
:101FF00008BE00F008B900C009B400B00AAF00B0D4
:102000000BAA00D00CA500000EA000500F9B00C032
:102010001096005012910000148C00C0158700B07B
:10202000178200B0197D00D01B7800001E7300409D
:10203000206E0090226900F024640040275F009029
:10204000295A00E02B5500102E500020304B001074
:10205000324600E033410090353C001037370070C5
:10206000383200A0392D00B03A2800A03B23006090
:102070003C1E00103D1900903D1400103E0F0070F2
:102080003E0A00C03E0500003F0000403FFBFF80CD
:102090003FF6FFC03FF1FF5A5F6D6F76655F636F7C
:1020A0006D700A00616C736F20656E61626C6564AF
:1020B000290A00206E6F742064697361626C656424
:1020C0002E205368617265642077697468002E0A57
:1020D000004D3834004732395034525400473239B9
:1020E000503454004732380A4732364350493000A2
:1020F0004732380A47323643504931004732394A6D
:102100003000473239503354300047323950324270
:102110005430004732380A4D31393049300A4D3198
:10212000303949300A47323950310A4D3130345351
:10213000300A4D3134305330004732380A4D31398E
:102140003049310A4D31303949310A47323950313D
:102150000A4D31303453300A4D313430533000475A
:1021600032394E503100473239503143004732390D
:102170004900473239543000473239543100473230
:1021800039532D3100473239493939390A47323903
:102190005032425430004732394E503100473239C4
:1021A000503354300047323950345254004732399A
:1021B00050345254004732394400473239410047C5
:1021C00032395700417869732000206D696E3A00FA
:1021D000206D61783A00416363656C657261746972
:1021E0006F6E206C696D697465642E0A00464153F8
:1021F0005400534C4F570004000005010003000534
:102200000100050400000005000300434F4D4D553B
:102210004E49434154494F4E0044525952554E0085
:102220004552524F525300494E464F004543484F86
:10223000004572726F722077726974696E672074DC
:102240006F20454550524F4D210A00414E474548A9
:10225000414C54454E005072696E7465722073741F
:102260006F707065642064756520746F206572728C
:102270006F72732E204669782074686520657272CB
:102280006F7220616E6420757365204D3939392075
:10229000746F20726573746172742E202854656D9A
:1022A00070657261747572652069732072657365FB
:1022B000742E2053657420697420616674657220E1
:1022C00072657374617274696E67290A004E6F20BB
:1022D000436865636B73756D2077697468206C69FA
:1022E0006E65206E756D6265722C204C6173742072
:1022F0004C696E653A20004E6F20436865636B73CE
:10230000756D2077697468206C696E65206E756DD7
:102310006265722C204C617374204C696E653A20A2
:1023200000636865636B73756D206D69736D6174AF
:1023300063682C204C617374204C696E653A2000F0
:102340004C696E65204E756D626572206973206EF2
:102350006F74204C617374204C696E65204E756DEE
:102360006265722B312C204C617374204C696E6550
:102370003A20004D3131300053657269616C207331
:102380007461747573206D69736D617463680A009C
:1023900053442072656164206572726F720A002175
:1023A00021204B494C4C2063617573656420627930
:1023B00020746F6F206D75636820696E6163746946
:1023C00076652074696D65202D2063757272656E67
:1023D0007420636F6D6D616E643A2000627573796D
:1023E0003A2070617573656420666F7220696E7043
:1023F00075740A00627573793A207061757365644B
:1024000020666F7220757365720A00627573793A7F
:102410002070726F63657373696E670A004D65643F
:1024200069756D20656E746665726E74004D6564C5
:1024300069756D2065726B616E6E74004D31303060
:10244000305300576965646572682E206E2E2053E4
:1024500074726F6D612E004D3630300042697474B5
:1024600065206E65757374617274656E00445255B3
:10247000434B455220474553544F50505400255329
:102480003A202553004142474542524F4348454E6A
:10249000005072696E7465722068616C7465642E98
:1024A000206B696C6C28292063616C6C6564210A5F
:1024B00000414E474548414C54454E005072696EAC
:1024C0007465722073746F70706564206475652024
:1024D000746F206572726F72732E20466978207453
:1024E0006865206572726F7220616E642075736515
:1024F000204D39393920746F20726573746172749C
:102500002E202854656D706572617475726520693E
:10251000732072657365742E20536574206974206E
:1025200061667465722072657374617274696E6736
:10253000290A006563686F3A004572726F723A004B
:10254000204A0020204D34323120490020204732DB
:102550003920493939390A00556E69666965642040
:10256000426564204C6576656C696E6700616374D2
:102570006976650A00696E00002053797374656D91
:102580002076312E303120002020207C0A004E4160
:102590004E0020202E20202000207C0020666F721C
:1025A00020004C43443A0A004353563A0A003A0A80
:1025B0000A000A42656420546F706F677261706828
:1025C00079205265706F72740050726F62696E6725
:1025D000204661696C65640A0050726F62696E67BB
:1025E00020676573636865697465727400205A3A80
:1025F000200020593A200042656420583A200047C4
:1026000032384C3000446F6E652E0A003F496E76BA
:10261000616C69642073746F7261676520736C6F9D
:10262000742E0A3F557365203020746F20003F459B
:102630004550524F4D2073746F72616765206E6F05
:102640007420617661696C61626C652E0A00446F6A
:102650006E652E0A003F496E76616C696420737462
:102660006F7261676520736C6F742E0A3F557365D6
:10267000203020746F20003F454550524F4D20734D
:10268000746F72616765206E6F7420617661696C2A
:1026900061626C652E0A004732392050322066692B
:1026A0006E69736865642E0A005859206F757473DB
:1026B000696465207072696E7461626C6520726114
:1026C000646975732E0A003F4572726F7220696EDD
:1026D00020427573696E6573732043617264206D67
:1026E0006561737572656D656E742E0A004D616E5D
:1026F00075616C6C792070726F62696E6720756E9F
:10270000726561636861626C6520706F696E747375
:102710002E0A00292E0A0A0050726F62696E672025
:1027200061726F756E642028004D65736820696E54
:1027300076616C6964617465642E2050726F6269A1
:102740006E67206D6573682E0A004D657368207A88
:1027500065726F65642E0A0044656661756C74204D
:1027600073746F7261676520736C6F7420302073AF
:10277000656C65637465642E0A004170706C7969DC
:102780006E672074657374207061747465726E2E48
:102790000A0A003F496E76616C696420285129203D
:1027A00074657374207061747465726E2E202830A5
:1027B00020746F2032290A0A0020696E76616C69E4
:1027C00064617465642E0A0A004C6F636174696FFA
:1027D0006E7300456E74697265204D6573680053B1
:1027E00074616E6461726420446576696174696FB6
:1027F0006E3A20004D65616E204D65736820486516
:10280000696768743A200023206F662073616D70D9
:102810006C65733A20000A4D657368206F6E6C79A1
:10282000207061727469616C6C7920706F70756C66
:10283000617465642E0A0A004D65737370756E6B62
:10284000740025532025692F2569002E0A002F00CA
:1028500050726F62696E67206D65736820706F6972
:102860006E74200020616E642074616B65206120AD
:102870006D6561737572656D656E742E0A006D6DA0
:1028800020746869636B2E0A00427573696E657304
:102890007320436172642069732000456E7466651D
:1028A000726E656E2026206D657373656E005265CD
:1028B0006D6F7665207368696D00506C616365208B
:1028C0007368696D20756E646572206E6F7A7A6CBC
:1028D00065000A4D657368206F6E6C7920706172B7
:1028E0007469616C6C7920706F70756C617465646B
:1028F0002E0A004D65736820506F696E74204D6517
:102900006173757265642061743A20004D6573735C
:10291000656E004D65617375726500556E74657204
:102920006C6567656E2026206D657373656E00505B
:102930006C616365205368696D2026204D65617365
:10294000757265004EC3A463687374657220507518
:102950006E6B742E2E2E004E65747A626561726203
:102960002E20616E6765682E00446F6E6520456499
:102970006974696E67204D6573680A00426561720B
:1029800062656974756E67206265656E6465740062
:102990004665696E65696E7374656C6C756E672EDD
:1029A0002E2E0028582C5929206F75747369646580
:1029B000207072696E7461626C6520726164697501
:1029C000732E0A004F6666736574206F7574206FEE
:1029D0006620626F756E64732E20283020746F201D
:1029E00031306D6D290A0A00496E76616C69642088
:1029F0006D617020747970652E0A0A003F2846299F
:102A00006164652068656967687420666F7220423A
:102A10006564204C6576656C20436F7272656374E3
:102A2000696F6E206E6F7420706C61757369626C73
:102A3000652E0A0A003F43616E2774206163746942
:102A40007661746520616E64206465616374697683
:102A5000617465206174207468652073616D652000
:102A600074696D652E0A0A00426F7468205820262A
:102A70002059206C6F636174696F6E73206D75737C
:102A800074206265207370656369666965642E0AE7
:102A90000A003F496E76616C696420677269642040
:102AA00073697A6520284A292073706563696669AD
:102AB00065642028322D39292E0A0A003F28502922
:102AC000686173652076616C756520696E76616CEE
:102AD00069642028302D36292E0A0A003F285629FD
:102AE0006572626F7365206C6576656C20696D70C8
:102AF0006C61757369626C652028302D34292E0A4B
:102B00000A003F285229657065746974696F6E20E8
:102B1000636F756E7420696E76616C69642028310C
:102B20002B292E0A0A004732392061757366C3BC0F
:102B30006872656E0006220122FC21F7215D0A0001
:102B400062656420706C616E65206E6F726D616C81
:102B5000203D205B00436F756C64206E6F742063B2
:102B60006F6D706C657465204C53462100436F7225
:102B70007265637465645F5A3D0025532025692F93
:102B80002569000A0A002F0054696C74696E672079
:102B90006D65736820706F696E7420003F457272B6
:102BA0006F722070726F62696E6720706F696E74E9
:102BB0002E2041626F7274696E67206F706572615A
:102BC00074696F6E2E0A00436F7272656374656478
:102BD0005F5A3D00255320332F330054696C7469CC
:102BE0006E67206D6573682028332F33290A0043F0
:102BF0006F727265637465645F5A3D0025532032BD
:102C00002F330054696C74696E67206D657368209A
:102C100028322F33290A00436F727265637465642A
:102C20005F5A3D00426572C3BC6872756E6773700F
:102C3000756E6B7400255320312F330054696C740A
:102C4000696E67206D6573682028312F33290A006B
:102C5000646F6E650A00496E7375666669636965BF
:102C60006E7420646174610A000000803F00006897
:102C7000420000E64200002C430000654300008053
:102C80003F000068420000E64200002C430000655F
:102C9000434578747261706F6C6174696E67206D02
:102CA0006573682E2E2E0021212053544F5020632F
:102CB000616C6C65642062656361757365206F6625
:102CC00020424C546F756368206572726F72202DBC
:102CD00020726573746172742077697468204D394D
:102CE00039390A0021212053544F502063616C6C04
:102CF00065642062656361757365206F6620424C70
:102D0000546F756368206572726F72202D20726532
:102D100073746172742077697468204D3939390A87
:102D200000486F74656E6420746F6F20636F6C640D
:102D30000A00507265737320627574746F6E20742C
:102D40006F20726573756D650A00496E73657274E4
:102D50002066696C616D656E7420616E64207072AE
:102D600065737320627574746F6E0A0050726573B8
:102D70007320627574746F6E20746F20686561745F
:102D8000206E6F7A7A6C650A00473236206162677E
:102D90006562726F6368656E004732362044C3BC5B
:102DA0007365206175666865697A656E00473236BD
:102DB000206865697A74204265747400576169748B
:102DC000696E6720666F72206865617475702E0A7F
:102DD000004665737465204CC3A46E67652050720D
:102DE000696D65005072696D696E67206665727401
:102DF0006967004D616E75656C6C205072696D6518
:102E00002E2E2E00473236207665726C6173736504
:102E10006E003F53706563696669656420582C597C
:102E200020636F6F7264696E617465206F757420C2
:102E30006F6620626F756E64732E0A003F285229F8
:102E400065706561742076616C7565206E6F7420A5
:102E5000706C61757369626C653B206D757374206D
:102E60006265206174206C6561737420312E0A00E4
:102E70003F537065636966696564206E6F7A7A6C2A
:102E8000652074656D7065726174757265206E6F12
:102E90007420706C61757369626C652E0A003F5313
:102EA00070656369666965642066696C616D656EED
:102EB000742073697A65206E6F7420706C6175730D
:102EC00069626C652E0A003F5370656369666965C7
:102ED00064207072696D65206C656E677468206E21
:102EE0006F7420706C61757369626C652E0A003FA7
:102EF000537065636966696564206E6F7A7A6C6584
:102F00002073697A65206E6F7420706C61757369C7
:102F1000626C652E0A003F52657472616374696F5A
:102F20006E204D756C7469706C696572206D757377
:102F300074206265207370656369666965642E0A32
:102F4000003F5370656369666965642052657472F9
:102F5000616374696F6E204D756C7469706C69651E
:102F600072206E6F7420706C61757369626C652E6F
:102F70000A003F537065636966696564206C617916
:102F8000657220686569676874206E6F7420706C64
:102F900061757369626C652E0A0043292E0A003F31
:102FA0005370656369666965642062656420746551
:102FB0006D7065726174757265206E6F7420706CCF
:102FC00061757369626C65202834302D0047323694
:102FD000207374617274696E672E2E2E0A006D6DF7
:102FE0002900202800206D696E75746573002061CA
:102FF0006E642000207475726E7300206279200068
:1030000020005475726E20004733352061626F7264
:103010007465642E0A0020280047333520666169F4
:103020006C656420617420706F696E742000473293
:10303000385A003F28532963726577207468726597
:103040006164206D7573742062652033302C2033E9
:10305000312C2034302C2034312C2035302C206F72
:10306000722035312E0A004F46460A0046616465DB
:10307000204865696768742000426564204C657665
:10308000656C696E6720004661696C656420746FC9
:1030900020656E61626C6520426564204C657665D2
:1030A0006C696E670A00496E76616C6964206D65B3
:1030B00073682E0A0076616C69640A53746F7261DA
:1030C000676520736C6F743A2000696E004D6573FC
:1030D0006820697320003F557365203020746F208D
:1030E000003F496E76616C69642073746F7261672A
:1030F0006520736C6F742E0A003F454550524F4D4A
:103100002073746F72616765206E6F7420617661E1
:10311000696C61626C652E0A004D65736820706F82
:10312000696E74206F7574206F662072616E6765BA
:103130000A004D34323120696E636F7272656374B8
:1031400020706172616D6574657220757361676569
:103150000A0020284E6F7420796574206D656173B4
:10316000757265642900202041766572616765206B
:103170006D65617375726564206261636B6C617308
:103180006820286D6D293A0020204261636B6C61D4
:1031900073682044697374616E636520286D6D29BE
:1031A0003A202020202020202000202846312E30C8
:1031B000203D2066756C6C2C2046302E30203D2042
:1031C0006E6F6E65290A002020436F72726563740A
:1031D000696F6E20416D6F756E742F466164652D49
:1031E0006F75743A20202020204600616374697650
:1031F000653A0A00696E004261636B6C6173682016
:10320000436F7272656374696F6E20002044002002
:10321000204D323030205300202844697361626CA5
:103220006564293A0046696C616D656E742073654A
:103230007474696E67730020204D3230312058005D
:103240004D617820416363656C65726174696F6E6E
:103250002028756E6974732F7332290020204D3237
:1032600030332058004D6178206665656472617462
:1032700065732028756E6974732F732900205200BE
:1032800020204D323034205000416363656C6572FC
:103290006174696F6E2028756E6974732F7332299B
:1032A0002028503C7072696E742D616363656C3EBA
:1032B00020523C726574726163742D616363656C46
:1032C0003E20543C74726176656C2D616363656C5D
:1032D0003E29003F4A206F7574206F662072616E30
:1032E00067652028302E303120746F20302E33292E
:1032F0000A00204A0020540020530020204D323084
:1033000035204200416476616E6365642028423C4A
:103310006D696E5F7365676D656E745F74696D6509
:103320005F75733E20533C6D696E5F6665656472C0
:103330006174653E20543C6D696E5F7472617665A0
:103340006C5F66656564726174653E204A3C6A75AF
:103350006E635F6465763E290020440020490020AA
:10336000204D333031205000486F74656E6420501A
:1033700049440020440020490020204D33303420AF
:103380005000426564205049440020204D61783A45
:103390002000200020204D696E3A2000203B2000B4
:1033A00020204D323131205300536F667420656EFA
:1033B0006473746F707300203B0020550020204D13
:1033C000363033204C0046696C616D656E74206C3C
:1033D0006F61642F756E6C6F6164004D32345325DC
:1033E0006C6454256C64004739322E3945257300CE
:1033F00047314625640047315A2573463630300040
:1034000047315825735925734633303030004D31DC
:103410003036502569532569004D313039532569BF
:10342000004D323030442573004739322E395A2549
:1034300073004D3432305325635A257300473238B8
:10344000523058590047315A2573463630300047BC
:1034500039322E395A2573004739322E394530001A
:103460004D313039532569004D31393053256900CC
:103470004D343230205330205A3000203B20002081
:10348000204D343133205300506F7765722D6C6FAF
:103490007373207265636F76657279003B2000203C
:1034A000286D6D290020496E76616C69642065780D
:1034B000747275646572200047322F473320626151
:1034C0006420706172616D65746572730A00576182
:1034D0007274656E2E2E2E005A2050726F62652017
:1034E00050617374204265640A005A2D536F6E64F4
:1034F00065206175C39F657268616C6200205A3AED
:10350000200020593A200042656420583A20004D9E
:1035100065736820706F696E74206F7574206F66B4
:103520002072616E67650A004B6C69636B207A7567
:103530006D20466F72747365747A656E004D6F749A
:103540006F72656E20616E6765736368616C746528
:103550007400456E642066696C65206C6973740A3A
:1035600000426567696E2066696C65206C697374DA
:103570000A004E6F206D656469610A00286E6F2035
:1035800066696C65290043757272656E74206669A0
:103590006C653A20005344207072696E74696E67DE
:1035A000206279746520004E6F742053442070723D
:1035B000696E74696E670A005072696E742074696E
:1035C0006D653A20000A53746174733A2046696C41
:1035D000616D656E7420757365643A20002C204C13
:1035E0006F6E67657374206A6F623A2000546F745F
:1035F000616C2074696D653A200053746174733A8C
:1036000020002C204661696C65643A20002C20461D
:10361000696E69736865643A20005072696E7473EC
:103620003A200053746174733A20006F6B006F6628
:1036300066002C222722202219220B2244454255C3
:10364000473A004D3131322053687574646F776E9C
:10365000004D3131332053004765656574656368FB
:1036600020413130204F46462E002F2F004D31345F
:103670003520533C696E6465783E206F7574206F09
:10368000662072616E67652028302D31290A00207E
:103690006C696D6974656420746F2000204D6178D9
:1036A0002000416363656C65726174696F6E0046EA
:1036B000523A0020466C6F773A20003A200020539F
:1036C0006572766F2000206F7574206F66207261BE
:1036D0006E67650A00536572766F20006469730037
:1036E000656E0043290A0061626C656420286D697B
:1036F0006E2074656D702000436F6C642065787473
:1037000072756465732061726520004F4646004FF4
:103710004E0046696C616D656E742072756E6F75D2
:10372000742000454550524F4D204F4B0A002E0A41
:10373000002028302D313029002076616C756520FD
:103740006F7574206F662072616E676500416476E4
:10375000616E6365204B3D004D383400446F6E65EB
:10376000207072696E74696E672066696C650A0004
:103770004D3737004D3331004361703A00434F4EAF
:103780004649475F4558504F5254004D45415450AB
:1037900041434B00434F4F4C45525F54454D5045BC
:1037A000524154555245004348414D4245525F54A1
:1037B000454D50455241545552450042414259539E
:1037C00054455050494E470041524353004D4F54C9
:1037D000494F4E5F4D4F44455300544845524D416B
:1037E0004C5F50524F54454354494F4E0045585436
:1037F000454E4445445F4D3230004C4F4E475F4686
:10380000494C454E414D45004155544F5245504F4E
:1038100052545F53445F5354415455530053445FD3
:103820005752495445005245504541540053444372
:103830004152440050524F4D50545F535550504FD9
:10384000525400484F53545F414354494F4E5F43D5
:103850004F4D4D414E445300454D455247454E4313
:10386000595F50415253455200434153455F4C49C3
:103870004748545F4252494748544E4553530054B9
:103880004F47474C455F4C494748545300534F46B8
:1038900054574152455F504F574552004255494C8D
:1038A000445F50455243454E54004C4556454C49A3
:1038B0004E475F44415441005A5F50524F424500C9
:1038C00052554E4F5554004155544F4C4556454C5A
:1038D000005052494E545F4A4F420050524F475297
:1038E000455353004155544F5245504F52545F5425
:1038F000454D50004155544F5245504F52545F5022
:103900004F5300564F4C554D455452494300454581
:1039100050524F4D0042494E4152595F46494C4525
:103920005F5452414E534645520053455249414C13
:103930005F584F4E5F584F4646004649524D5741DB
:1039400052455F4E414D453A4D61726C696E203271
:103950002E302E392E3320284A616E20323220320A
:103960003032322031323A31383A35372920534F0C
:10397000555243455F434F44455F55524C3A676942
:10398000746875622E636F6D2F4D61726C696E463F
:1039900069726D776172652F4D61726C696E20502E
:1039A000524F544F434F4C5F56455253494F4E3A36
:1039B000312E30204D414348494E455F54595045C2
:1039C0003A47656565746563682041313020455824
:1039D0005452554445525F434F554E543A31205549
:1039E0005549443A63656465326132662D3431610C
:1039F000322D343734382D396231322D6335356309
:103A000036326633363766660A00290A0020746F3C
:103A100020003F5A206F7574206F662072616E67B8
:103A200065202800290A0020746F20003F59206F6C
:103A30007574206F662072616E676520282D0029DD
:103A40000A0020746F20003F58206F7574206F6645
:103A50002072616E676520282D00203B0020204DDC
:103A60003835312058005A2D50726F6265204F66EC
:103A7000667365740043616E6E6F74206F70656E5F
:103A80002073756264697220002569730025696D71
:103A900020256973002569682025696D20256973D3
:103AA00000256964202569682025696D20256973D2
:103AB0000025697920256964202569682025696DBC
:103AC00020256973006BC3BC686C742E2E2E0068B1
:103AD00065697A742E2E2E004531202553004265EB
:103AE0007474206BC3BC686C742E2E2E00426574F7
:103AF00074206865697A742E2E2E002364656669C9
:103B00006E652044454641554C545F006265640033
:103B10004B6420004B6920004B702000504944202A
:103B20004175746F74756E652066696E697368653A
:103B300064212050757420746865206C6173742052
:103B40004B702C204B6920616E64204B6420636FA6
:103B50006E7374616E74732066726F6D2062656C33
:103B60006F7720696E746F20436F6E666967757238
:103B70006174696F6E2E680A005049442041757463
:103B80006F74756E65206661696C65642120746967
:103B90006D656F75740A00504944204175746F74E7
:103BA000756E65206661696C6564212054656D7071
:103BB0006572617475726520746F6F2068696768DB
:103BC0000A00504944204379636C657300255320F3
:103BD00025692F256900204B643A2000204B693A63
:103BE0002000204B703A200020436C61737369639E
:103BF00020504944200A00204E6F206F7665727372
:103C0000686F6F740A002054753A2000204B753A93
:103C10002000206D61783A2000206D696E3A200006
:103C200020643A200020626961733A20005761697C
:103C30007420666F7220686561742075702E2E2E58
:103C400000504944204175746F74756E652073741B
:103C50006172740A00504944204175746F74756E26
:103C600065206661696C6564212054656D706572BC
:103C7000617475726520746F6F20686967680A00E7
:103C8000504944204175746F74756E650050494405
:103C9000204175746F74756E65206661696C65642A
:103CA0002120426164206865617465722069640A3C
:103CB00000A10000006900A20000006300B0000045
:103CC000000900C10000004100C20000004100C323
:103CD0000000004100C40000004100C50000004198
:103CE00000C60000004145C70000004300C80000B6
:103CF000004500C90000004500CD0000004900D18A
:103D00000000004E00D50000004F00D60000004F1C
:103D100000D70000007800DC0000005500DD000046
:103D2000005900E00000006100E10000006100E2D5
:103D30000000006100E30000006100E40000006199
:103D400000E50000006100E60000006165E700009A
:103D5000006300E80000006500E90000006500EA7B
:103D60000000006500EB0000006500EC0000006949
:103D700000ED0000006900EE0000006900EF0000A7
:103D8000006900F10000006E00F20000006F00F317
:103D90000000006F00F40000006F00F50000006FED
:103DA00000F60000006F00F80000006F00F900004E
:103DB000007500FA0000007500FB0000007500FCB3
:103DC0000000007500FD0000007900FF0000007990
:103DD000000401000041000501000061000601002F
:103DE0000043000701000063000C01000043000DC8
:103DF00001000063000E01000044000F0100006498
:103E0000001101000064001901000065001A0100A2
:103E10000045001B01000065001F01000067003025
:103E20000100004900310100006900410100004C1F
:103E300000420100006C00430100004E00440100FC
:103E4000006E00480100006E005801000052005949
:103E500001000072005A01000053005B0100007372
:103E6000005F010000730060010000530061010069
:103E70000073006501000074006F01000075007C94
:103E80000100007A007D0100005A007E0100007AE6
:103E900000920100006600E302000078002220008A
:103EA000002E001E210000507822210000544D9069
:103EB0002100003C2D922100002D3EB02100000386
:103EC00000BB21000004003C2200007E00482200CC
:103ED000007E3D60220000213D612200003D006423
:103EE0002200003C3D652200003E3DF1230000071A
:103EF00000A03000003D0021F301000200C2F401E7
:103F0000000500A1000000A900A2000000A400A379
:103F1000000000A500A5000000A600A7000000D238
:103F200000A9000000CF00AA0000009D00AB000027
:103F300000BB00AE000000CE00B0000000B200B137
:103F40000000001000B20000001E00B30000001FBF
:103F500000B6000000D300BA0000009E00BB0000C5
:103F600000BC00BC000000B600BD000000B500BFF2
:103F70000000009F00C20000008F00C3000000AAE4
:103F800000C40000008E00C60000009200C70000C0
:103F9000008000C90000009000D10000009C00D506
:103FA000000000AC00D60000009900D7000000B768
:103FB00000D8000000AE00DC0000009A00E0000025
:103FC000008500E1000000A000E20000008300E3A3
:103FD000000000AB00E40000008400E50000008663
:103FE00000E60000009100E70000008700E8000004
:103FF000008A00E90000008200EA0000008800EB6F
:104000000000008900EC0000008D00ED000000A120
:1040100000EE0000008C00EF0000008B00F10000BB
:10402000009B00F20000009500F3000000A200F4E5
:104030000000009300F5000000AD00F600000094C1
:1040400000F7000000B800F8000000AF00F9000021
:10405000009700FA000000A300FB0000009600FC9F
:104060000000008100FF000000980092010000A8FD
:10407000008E030000DB008F030000DE00900300D1
:1040800000E70093030000D40094030000D50098DB
:10409000030000D6009B030000D7009E030000D859
:1040A00000A0030000D900A3030000DA00A503006C
:1040B00000DB00A6030000DC00A8030000DD00A96F
:1040C000030000DE00AC030000DF00AD030000E3EE
:1040D00000AE030000E500AF030000E700B00300FE
:1040E00000F100B1030000DF00B2030000E000B304
:1040F000030000E100B4030000E200B5030000E3A8
:1041000000B6030000E400B7030000E500B80300B8
:1041100000E600B9030000E700BA030000E800BBB6
:10412000030000E900BC030000EA00BD030000EB4F
:1041300000BE030000EC00C0030000ED00C103005E
:1041400000EE00C3030000EF00C4030000F000C550
:10415000030000F100C7030000F200C8030000F3F1
:1041600000C9030000F400CA030000E700CB03000D
:1041700000F100CD030000F100CE030000F40022A6
:10418000200000CD001E210000A70022210000D049
:1041900000A4210000F900B5210000C400BB2100EB
:1041A000000400E5210000FB001A220000BE001EF2
:1041B000220000C2002B2200001B003C2200001D38
:1041C00000482200001A0060220000BD00612200A9
:1041D00000110064220000B90065220000BA00202E
:1041E000230000C00021230000C100A72300001409
:1041F00000A92300001500AB2300001600AD23002A
:10420000001700B02300001800B12300001900B20D
:104210002300001200B32300001300F12300000765
:10422000000C250000C90010250000CA001425005C
:1042300000CB0018250000CC00F8250000C300606A
:104240002B0000C800612B0000C500622B0000C7D6
:1042500000632B0000C600C62B0000F500C72B0032
:1042600000F700C82B0000F6000000000001020467
:10427000040000001C1C0C040404020100000000E7
:104280000004081000000000002D2D2D2D2D2D0004
:104290007C4D61726C696E7C002D2D2D2D2D2D00B5
:1042A000001C1F11111F00000006191803130C0039
:1042B000040E1F041C000000000E1315110E000058
:1042C0001C10181705060500040A0A0A0A11110E27
:1042D0000C12120C00000000001F1511151F000029
:1042E00041425300504C41004E65747A206E69760D
:1042F000656C6C696572656E0045636B70756E6B9D
:104300007465004769747465726E65747A2D4E69C0
:1043100076656C6C2E00332D50756E6B742D4E6966
:1043200076656C6C2E004732394A3000473239507E
:104330003352432E2569004D616E75656C6C657353
:104340002046C3BC6C6C656E004732395032425413
:104350003000436C6576657265732046C3BC6C6C37
:10436000656E0047323950335430004D656E6765D5
:1043700020616E2046C3BC6C6C756E67004D657322
:104380006820696E76616C6964617465642E0A00E8
:10439000E442E042496E666F004EC3A463687374E2
:1043A0006C6965672E20616E6E2E004732394900B8
:1043B000416C6C657320616E6E756C6C69657265BD
:1043C0006E004E65747A657273742E20666F727417
:1043D000732E00473239503143004E65747A2046BF
:1043E000C3BC6C6C656E004E65747A206572737424
:1043F000656C6C656E206B616C74004732394E5091
:104400003100456967656E6573204E65747A206575
:104410007273742E004732380A4D31393049310AEF
:104420004D31303949310A47323950310A4D313036
:104430003453300A4D31343053300024204E6574EB
:104440007A2065727374656C6C656E004732380A49
:104450004D31393049300A4D31303949300A47320F
:104460003950310A4D31303453300A4D31343053E4
:104470003000473239256325690A4D313137200034
:104480004E65747A2025692067656C6164656E00ED
:104490004E65747A20256920676573706569636865
:1044A00065727400426574746E65747A2073706509
:1044B00069636865726E00426574746E65747A2013
:1044C0006C6164656E0053706569636865726F72D4
:1044D00074004B65696E205370656963686572008E
:1044E00047323950345825735925735225690020B5
:1044F0002D2D2D2D2D005A3A00593A004732380003
:1045000045787465726E6520536963686572756E6F
:104510006700473239532D31004175736761626519
:104520002066C3BC722043535600473239543100D1
:10453000417573676162652066C3BC7220486F7302
:1045400074004732395430004E65747A2D4E6976C6
:10455000656C6C696572756E67004E65747A206271
:1045600065617262656974656E004E65747A207665
:10457000616C6964696572656E004E65747A206D60
:10458000616E75656C6C20657273742E00473239EC
:10459000493939390A4732395032425430004E6570
:1045A000747A2065727374656C6C656E00372E4288
:1045B0006574746E65747A2073706569636865727A
:1045C0006E00362E4665696E65696E73742E2041E5
:1045D0006C6C6573004732395034525400352E4E9E
:1045E00065747A2076616C6964696572656E003401
:1045F0002E4665696E65696E73742E20416C6C651C
:1046000073004732395034525400332E4E65747A59
:104610002076616C6964696572656E00322E436C48
:104620006576657265732046C3BC6C6C656E004729
:1046300032395033543000312E4E65747A20657211
:104640007374656C6C656E206B616C7400473239F5
:104650004E503100556E696669656420426564207C
:104660004C6576656C696E670055424C2D496E66E7
:104670006F20617573676562656E00473239570058
:1046800055424C2D5765726B7A65756765004B61B5
:1046900072746520617573676562656E004E65743E
:1046A0007A2D5370656963686572706C61747A0005
:1046B0004E65747A206265617262656974656E0028
:1046C00053636872697474776569736573205542C2
:1046D0004C00417573626C656E6468C3B6686500B2
:1046E00055424C20616B746976696572656E00474E
:1046F0003239410055424C206465616B74697669BA
:104700006572656E004732394400426577656775AA
:104710006E67004732394A2569006F70656E005434
:104720005249474745524544003A200066696C614A
:104730006D656E74007A5F6D696E00795F6D696E8C
:1047400000785F6D696E005265706F7274696E6794
:1047500020656E6473746F70207374617475730A6E
:104760000020746F6F206C6F6E67206578747275AF
:1047700073696F6E2070726576656E7465640A0089
:1047800020636F6C6420657874727573696F6E2036
:1047900070726576656E7465640A00566F7268653E
:1047A000722025732573257320686F6D656E004830
:1047B0006F6D696E6720676573636865697465729C
:1047C00074005761726E696E673A20486F6D696E4A
:1047D000672042756D702044697669736F72203C62
:1047E00020310A00020204000030C1000080C00035
:1047F0000000000000714300006A43000082430093
:1048000000A0400000A04000000040FFFFFF0000AB
:1048100066430000664300008243000030C1000090
:1048200080C00000000045696E7374656C6C2E20BA
:104830006765737065692E00290A002062797465C6
:10484000733B20637263200053657474696E6773F1
:104850002053746F726564202800454550524F4DB7
:1048600020496E697469616C697A65640A004D65F6
:10487000736820736176656420696E20736C6F7451
:1048800020003F556E61626C6520746F2073617605
:1048900065206D65736820646174612E0A00207361
:1048A0006C6F743D00206D65736865735F656E6441
:1048B0003D004532454E443D00206D6573682073D0
:1048C0006C6F747320617661696C61626C652E0A2D
:1048D000003F496E76616C696420736C6F742E0AB8
:1048E000004D657368206C6F616465642066726F4B
:1048F0006D20736C6F7420003F556E61626C652093
:10490000746F206C6F6164206D65736820646174DE
:10491000612E0A0048617264636F646564204465B7
:104920006661756C742053657474696E6773204C8E
:104930006F616465640A00203B204C6576656C6994
:104940006E67200020204D343230205300556E69B0
:104950006669656420426564204C6576656C696EA5
:10496000670020460020420020480020204D3134BE
:10497000352053004D6174657269616C2068656112
:1049800074757020706172616D657465727300205A
:10499000204D393030204B004C696E6561722041EA
:1049A0006476616E63650020580020204D343235F6
:1049B0002046004261636B6C61736820636F6D70A9
:1049C000656E736174696F6E00203B2053656E7372
:1049D0006F72200020204D34313220530046696C24
:1049E000616D656E742072756E6F75742073656E7F
:1049F000736F7200206D65736865732E0A0A004537
:104A00004550524F4D2063616E20686F6C642000EA
:104A1000416374697665204D65736820536C6F74CB
:104A2000200020204D3134392043203B20556E6931
:104A3000747320696E2043656C736975730A005442
:104A4000656D706572617475726520556E697473F9
:104A5000002020473231203B004C696E6561722096
:104A6000556E697473003F4D65736820746F6F20D5
:104A700062696720666F7220454550524F4D2E0A7D
:104A800000454550524F4D206461746173697A65E9
:104A9000206572726F722E0A0055424C2072657347
:104AA00065740A00206C6F616465642066726F6DC6
:104AB0002073746F726167652E0A004D65736820FC
:104AC00000290A002062797465733B2063726320B9
:104AD000002073746F7265642073657474696E6707
:104AE00073207265747269657665642028002028D9
:104AF00063616C63756C6174656429210A0020210F
:104B00003D2000454550524F4D20435243206D6992
:104B1000736D61746368202D202873746F726564EF
:104B20002920002053697A653A2000496E6465782F
:104B30003A20000000FA430000FA430000A04000C1
:104B400000C8410000A4420000A4420000CD430080
:104B500000D042F4010000F401000064000000886D
:104B6000130000204D61726C696E3D563836290A7B
:104B700000454550524F4D2076657273696F6E2027
:104B80006D69736D617463682028454550524F4DBF
:104B90003D0024F4D43050C38E20C2A24017828B33
:104BA0007011127A910D816CD90AA861E108C75879
:104BB0006607615143061E4B5D05C145A7041A41B6
:104BC0001104093D9803713931034036DB02653326
:104BD0009102D4305402802E1D02632CEE01752AFE
:104BE000C501B028A001102781018F2564012B2465
:104BF0004B01E0223401AC211F018D200D01801FEB
:104C0000FC00841EED00971DDF00B81CD200E61BDF
:104C1000C600201BBC00641AB200B219A8000A1911
:104C2000A0006A189900D117910040178B00B516A3
:104C3000840031167E00B31579003A157300C7144D
:104C40006F0058146A00EE13660088136300251382
:104C50005E00C7125B006C12570015125400C111A0
:104C6000510070114F0021114B00D61049008D10DA
:104C700047004610440002104200C00F4000800F61
:104C80003E00420F3C00060F3B00CB0E3800930E57
:104C900037005C0E3500270E3400F30D3200C10DD5
:104CA0003100900D3000600D2E00320D2D00050DED
:104CB0002C00D90C2B00AE0C2900850C29005C0CB3
:104CC0002700350C27000E0C2600E80B2400C40B2F
:104CD0002400A00B23007D0B23005A0B2100390B6D
:104CE0002100180B2000F80A1F00D90A1E00BB0A79
:104CF0001E009D0A1D00800A1D00630A1C00470A51
:104D00001B002C0A1B00110A1A00F7091A00DD0902
:104D10001900C4091900AB091900920917007B0991
:104D20001800630917004C091600360916002009FF
:104D300016000A091500F5081500E0081400CC0853
:104D40001400B8081400A4081400900813007D088B
:104D500012006B08130058081200460812003408AD
:104D60001100230811001208110001081100F007BA
:104D70001000E0071000D0071000C0071000B007B7
:104D80000F00A107100091070E0083070F007407A2
:104D90000F0065070E0057070E0049070E003B077E
:104DA0000D002E070E0020070D0013070D0006074B
:104DB0000D00F9060C00ED060D00E0060C00D4060F
:104DC0000C00C8060C00BC060C00B0060C00A406C3
:104DD0000B0099060C008D060B0082060B0077066F
:104DE0000B006C060B0061060A0057060B004C0610
:104DF0000A0042060A0038060A002E060A002406A7
:104E00000A001A060A001006090007060A00FD0536
:104E10000900F4050900EB050900E2050900D905C0
:104E20000900D0050900C7050900BE050900B50540
:104E30000800AD050800A50509009C0508009405BB
:104E400008008C050800840508007C05080074052E
:104E500008006C050700650508005D05070056059C
:104E600008004E0507004705070040050800380503
:104E70000700310507002A050700230507001C0568
:104E80000600160507000F050700080506000205C5
:104E90000700FB040600F5040700EE040600E80422
:104EA0000600E2040700DB040600D5040600CF0478
:104EB0000600C9040600C3040600BD040600B704CA
:104EC0000600B1040500AC040600A6040600A00418
:104ED00005009B04060095040500900406008A0462
:104EE000050085040500800406007A0405007504A9
:104EF0000500700405006B040500660405006104EC
:104F000005005C04050057040500520405004D042B
:104F1000050048040500430405003E0404003A046B
:104F2000050035040500300404002C0405002704A6
:104F30000400230405001E0404001A0404001604DF
:104F40000500110404000D04040009040500040414
:104F5000040000040400FC030400F8030400F4034C
:104F60000400F0030400EC030400E8030400E4037D
:104F70000400E0030400DC030400D8030400D403AD
:104F80000400D0030400CC030400C8030300C503DD
:104F9000030024F404D9201BC40C5C0E9804C4093B
:104FA0005F0265077101F405F900FB04B3004804D2
:104FB0008700C10369005803550003034500BE0282
:104FC0003A008402310053022A002902250004021B
:104FD0002000E4011C00C8011900AF01170098016E
:104FE00014008401130071011000610110005101CF
:104FF0000E0043010D0036010B002B010B002001B8
:105000000B00150109000C01090003010800FB0059
:105010000800F3000800EB000700E4000600DE00D3
:105020000600D8000600D2000600CC000500C7002C
:105030000500C2000500BD000400B9000400B50071
:105040000400B1000400AD000400A9000400A500A4
:105050000300A20003009F0004009B0003009800CF
:1050600003009500020093000300900003008D00F0
:1050700002008B000300880002008600020084000A
:105080000300810002007F0002007D0002007B001F
:10509000020079000200770001007600020074002F
:1050A000020072000100710002006F0002006D003A
:1050B00001006C0002006A00010069000200670044
:1050C000010066000100650001006400020062004A
:1050D000010061000100600001005F0002005D004E
:1050E00001005C0001005B0001005A000100590052
:1050F0000100580001005700010056000100550052
:105100000100540001005300000053000100520050
:10511000010051000100500001004F0001004E004D
:1051200000004E0001004D0001004C0001004B004A
:1051300000004B0001004A00010049000100480046
:105140000000480001004700010046000000460042
:10515000010045000000450001004400010043003B
:105160000000430001004200000042000100410035
:10517000000041000100400001003F0000003F002E
:1051800001003E0000003E0001003D0000003D0027
:1051900001003C0000003C0000003C0001003B001E
:1051A00000003B0001003A0000003A000100390015
:1051B000000039000100380000003800000038000D
:1051C0000100370000003700010036000000360003
:1051D00000003600010035000000350000003500F9
:1051E00001003400000034000000340001003300EE
:1051F00000003300000033000100320000003200E4
:1052000000003200010031000000310000003100D8
:1052100001003000000030000000300001002F00CD
:1052200000002F0000002F0000002F0001002E00C2
:1052300000002E0000002E0001002D0000002D00B7
:1052400000002D0000002D0001002C0000002C00AB
:1052500000002C0000002C0001002B0000002B009F
:1052600000002B0000002B0001002A0000002A0093
:1052700000002A0000002A00010029000000290087
:10528000000029000000290000002900010028007A
:10529000000028000000280000002800000028006E
:1052A0000100270000002700000027000000270061
:1052B0000000270001002600000026000000260054
:1052C0000000260000002600010025000000250047
:1052D000000025000000250000002500000025003A
:1052E000010024000000240000002400000024002D
:1052F0000000240001002300000023000000230020
:105300000000230000002300000023000000230011
:105310000100220000002200000022000000220004
:1053200000002200000022000100210000002100F6
:1053300000002100000021000000210000002100E9
:1053400000002100010020000000200000002000DB
:1053500000002000000020000000200000002000CD
:105360000000200001001F0000001F0000001F00BF
:1053700000001F0000001F0000001F0000001F00B1
:1053800001001E0000001E0000001E0000001E00A4
:105390000000C23100001C260000F4190000D80FE4
:1053A0000000EB080000C00400007502000040018E
:1053B000000020436F756E7420583A004265747483
:1053C000004531004500626564002C2073797374D8
:1053D000656D2073746F7070656421204865617419
:1053E00065725F49443A20004845495A454E204578
:1053F00052464F4C474C4F530048656174696E6785
:10540000206661696C656400200220C39C4245529D
:1054100053434852495454454E004D415854454D0C
:1054200050207472696767657265640020022055B8
:105430004E54455253434852495454454E004D49E9
:105440004E54454D502074726967676572656400FB
:105450002002204E49434854204552524549434872
:105460005400546865726D616C2052756E6177618D
:105470007900202F002042403A0020403A00205777
:105480003A0020573A0042657474206865697A745E
:105490002E2E2E005761697420666F72206265643B
:1054A0002068656174696E672E2E2E0A00496E763B
:1054B000616C69642065787472756465720A007C39
:1054C0003C3E5E2B3D3F2F5B5D3B2C2A225C004621
:1054D000494C414D454E5420454E544C4144454E57
:1054E0000046494C414D454E54204C4144454E00E8
:1054F00046494C414D454E54205745434853454C31
:10550000004261636B2D4C656674004261636B2DD4
:1055100052696768740046726F6E742D52696768CD
:10552000740046726F6E742D4C656674004265742B
:105530007400476568C3A4757365002D2D2D005355
:105540004400202020202020200020202020004770
:1055500065656574656368204131302062657265F8
:10556000697400447275636B742E2E2E004472753C
:10557000636B206162676562726F6368656E004D80
:10558000323520500A4D323400447275636B2070FE
:10559000617573696572742E2E2E00506175736586
:1055A0002E2E2E004D32340058595A20686F6D65EA
:1055B0006E004C6164656E206D6D00456E746C61AB
:1055C00064656E206D6D0046696C616D656E746416
:1055D000757263686D6573736572004520696E202E
:1055E0006D6DC2B300566F72736368756266616BEE
:1055F000746F72004D3330332055312045256920BA
:1056000053256900504944204175746F74756E6567
:10561000202A005049442D44202A005049442D4955
:10562000202A005049442D50202A002002204661A3
:105630006B746F72002002206D6178002002206D73
:10564000696E0061757300616E004175746F20545E
:10565000656D706572617475720056206D696E209B
:105660004C65657266616872740056206D696E20C3
:105670000056206D617820450056206D6178205AD3
:105680000056206D617820590056206D61782058B1
:105690000041206D617820450041206D6178205ADD
:1056A0000041206D617820590041206D61782058BB
:1056B0000041204C65657266616872740041204546
:1056C000696E7A75670042657363686C65756E69AB
:1056D00067756E67005A2050726F62652057697A4D
:1056E00061726400536F6E64656E76657273617487
:1056F0007A205A00536F6E64656E766572736174BA
:105700007A205900536F6E64656E766572736174AA
:105710007A205800452053746570732F6D6D005AC0
:105720002053746570732F6D6D005920537465702C
:10573000732F6D6D00582053746570732F6D6D005D
:105740004572772E2045696E7374656C6C756E6753
:10575000656E003F0041626272656368656E00427B
:10576000657374C3A4746967656E005765726B7363
:1057700065696E7374656C6C756E67656E004669FD
:105780006C616D656E740054656D706572617475E1
:105790007200537069656C0053746570732F6D6D82
:1057A00000536F6E64656E7665727361747A004A39
:1057B000756E6374696F6E2044657600426573632D
:1057C000686C65756E6967756E67004765736368B9
:1057D00077696E6469676B656974004B6F6E6669A3
:1057E0006775726174696F6E005A00590058004BFA
:1057F0006F7272656B7475720048617570746D6557
:105800006EC3BC003F004EC3A4636873746520453B
:10581000636B6500466572746967005765697465F6
:10582000720053572D4D6F6475730045696E666144
:105830006872656E0041757366616872656E0053CB
:10584000656C62737474657374005A7572C3BC635B
:105850006B7365747A656E00426574740044C3BCF2
:105860007365004CC3BC66746572004B6F6E6669ED
:105870006775726174696F6E005374616E646172F2
:10588000647765727465206C6164656E004B6F6E41
:105890006669672E206C6164656E004B6F6E666989
:1058A000672E2073706569636865726E00242045F9
:1058B000696E7374656C6C756E67656E00576965AB
:1058C000646572682E206E2E205374726F6D612E87
:1058D0000061757300616E0052756E6F75742D53A3
:1058E000656E736F7200424C546F75636800536F3E
:1058F0006E64656E7665727361747A205A004572C3
:10590000772E2045696E7374656C6C756E67656E75
:105910000048617570746D656EC3BC004D373032E0
:1059200020542564004D3630302042302054256408
:10593000004D373032203B2564004D373031205444
:1059400025640046696C616D656E742077656368D7
:1059500073656C6E0062656E75747A6572646566F7
:105960002E204865697A656E002420566F7277C3D1
:10597000A4726D656E005A7572C3BC636B004D36C0
:105980003030423000447275636B2077656974650E
:10599000720061757300616E0052756E6F75742DC3
:1059A00053656E736F72004D65687220656E746C1E
:1059B0006164656E00464F5254532E204F50544937
:1059C0004F4E454E3A00445255434B20504155539B
:1059D0004945525400202044C3BC73653A2000441A
:1059E0007275636B20697374007061757369657299
:1059F000742E2E2E0000576172746520617566202A
:105A000064656E0053746172742064657300466946
:105A10006C616D656E747765636873656C732E2E4B
:105A20002E0057617274652061756600456E746E54
:105A300061686D65006465732046696C616D656EB3
:105A400074732E2E2E0044C3BC7365206865697A7A
:105A50007420617566006269747465207761727480
:105A6000656E2E2E2E00004B6E6F7066206472C322
:105A7000BC636B656E20756D0044C3BC73652061AB
:105A800075667A756865697A656E000046696C614D
:105A90006D656E742065696E6C6567656E00756E08
:105AA00064204B6E6F7066206472C3BC636B656E5E
:105AB00000756D20666F72747A757365747A656EA1
:105AC00000576172746520617566004C6164656E93
:105AD000206465730046696C616D656E74732E2E6B
